{
  "_format": "hh-sol-artifact-1",
  "contractName": "MyEpicNFT",
  "sourceName": "contracts/MyEpicNFT.sol",
  "abi": [
    {
      "inputs": [],
      "stateMutability": "nonpayable",
      "type": "constructor"
    },
    {
      "anonymous": false,
      "inputs": [
        {
          "indexed": true,
          "internalType": "address",
          "name": "owner",
          "type": "address"
        },
        {
          "indexed": true,
          "internalType": "address",
          "name": "approved",
          "type": "address"
        },
        {
          "indexed": true,
          "internalType": "uint256",
          "name": "tokenId",
          "type": "uint256"
        }
      ],
      "name": "Approval",
      "type": "event"
    },
    {
      "anonymous": false,
      "inputs": [
        {
          "indexed": true,
          "internalType": "address",
          "name": "owner",
          "type": "address"
        },
        {
          "indexed": true,
          "internalType": "address",
          "name": "operator",
          "type": "address"
        },
        {
          "indexed": false,
          "internalType": "bool",
          "name": "approved",
          "type": "bool"
        }
      ],
      "name": "ApprovalForAll",
      "type": "event"
    },
    {
      "anonymous": false,
      "inputs": [
        {
          "indexed": false,
          "internalType": "uint256",
          "name": "_fromTokenId",
          "type": "uint256"
        },
        {
          "indexed": false,
          "internalType": "uint256",
          "name": "_toTokenId",
          "type": "uint256"
        }
      ],
      "name": "BatchMetadataUpdate",
      "type": "event"
    },
    {
      "anonymous": false,
      "inputs": [
        {
          "indexed": false,
          "internalType": "uint256",
          "name": "_tokenId",
          "type": "uint256"
        }
      ],
      "name": "MetadataUpdate",
      "type": "event"
    },
    {
      "anonymous": false,
      "inputs": [
        {
          "indexed": false,
          "internalType": "address",
          "name": "sender",
          "type": "address"
        },
        {
          "indexed": false,
          "internalType": "uint256",
          "name": "tokenId",
          "type": "uint256"
        },
        {
          "indexed": false,
          "internalType": "uint256",
          "name": "rand",
          "type": "uint256"
        }
      ],
      "name": "NewEpicNFTMinted",
      "type": "event"
    },
    {
      "anonymous": false,
      "inputs": [
        {
          "indexed": true,
          "internalType": "address",
          "name": "from",
          "type": "address"
        },
        {
          "indexed": true,
          "internalType": "address",
          "name": "to",
          "type": "address"
        },
        {
          "indexed": true,
          "internalType": "uint256",
          "name": "tokenId",
          "type": "uint256"
        }
      ],
      "name": "Transfer",
      "type": "event"
    },
    {
      "inputs": [
        {
          "internalType": "address",
          "name": "to",
          "type": "address"
        },
        {
          "internalType": "uint256",
          "name": "tokenId",
          "type": "uint256"
        }
      ],
      "name": "approve",
      "outputs": [],
      "stateMutability": "nonpayable",
      "type": "function"
    },
    {
      "inputs": [
        {
          "internalType": "address",
          "name": "owner",
          "type": "address"
        }
      ],
      "name": "balanceOf",
      "outputs": [
        {
          "internalType": "uint256",
          "name": "",
          "type": "uint256"
        }
      ],
      "stateMutability": "view",
      "type": "function"
    },
    {
      "inputs": [
        {
          "internalType": "uint256",
          "name": "tokenId",
          "type": "uint256"
        }
      ],
      "name": "getApproved",
      "outputs": [
        {
          "internalType": "address",
          "name": "",
          "type": "address"
        }
      ],
      "stateMutability": "view",
      "type": "function"
    },
    {
      "inputs": [],
      "name": "getCurrentTokenId",
      "outputs": [
        {
          "internalType": "uint256",
          "name": "",
          "type": "uint256"
        }
      ],
      "stateMutability": "view",
      "type": "function"
    },
    {
      "inputs": [
        {
          "internalType": "address",
          "name": "owner",
          "type": "address"
        },
        {
          "internalType": "address",
          "name": "operator",
          "type": "address"
        }
      ],
      "name": "isApprovedForAll",
      "outputs": [
        {
          "internalType": "bool",
          "name": "",
          "type": "bool"
        }
      ],
      "stateMutability": "view",
      "type": "function"
    },
    {
      "inputs": [],
      "name": "makeAnEpicNFT",
      "outputs": [],
      "stateMutability": "nonpayable",
      "type": "function"
    },
    {
      "inputs": [],
      "name": "name",
      "outputs": [
        {
          "internalType": "string",
          "name": "",
          "type": "string"
        }
      ],
      "stateMutability": "view",
      "type": "function"
    },
    {
      "inputs": [
        {
          "internalType": "uint256",
          "name": "tokenId",
          "type": "uint256"
        }
      ],
      "name": "ownerOf",
      "outputs": [
        {
          "internalType": "address",
          "name": "",
          "type": "address"
        }
      ],
      "stateMutability": "view",
      "type": "function"
    },
    {
      "inputs": [
        {
          "internalType": "uint256",
          "name": "tokenId",
          "type": "uint256"
        }
      ],
      "name": "pickRandomIpfsLinks",
      "outputs": [
        {
          "internalType": "string",
          "name": "",
          "type": "string"
        },
        {
          "internalType": "uint256",
          "name": "",
          "type": "uint256"
        }
      ],
      "stateMutability": "view",
      "type": "function"
    },
    {
      "inputs": [
        {
          "internalType": "address",
          "name": "from",
          "type": "address"
        },
        {
          "internalType": "address",
          "name": "to",
          "type": "address"
        },
        {
          "internalType": "uint256",
          "name": "tokenId",
          "type": "uint256"
        }
      ],
      "name": "safeTransferFrom",
      "outputs": [],
      "stateMutability": "nonpayable",
      "type": "function"
    },
    {
      "inputs": [
        {
          "internalType": "address",
          "name": "from",
          "type": "address"
        },
        {
          "internalType": "address",
          "name": "to",
          "type": "address"
        },
        {
          "internalType": "uint256",
          "name": "tokenId",
          "type": "uint256"
        },
        {
          "internalType": "bytes",
          "name": "data",
          "type": "bytes"
        }
      ],
      "name": "safeTransferFrom",
      "outputs": [],
      "stateMutability": "nonpayable",
      "type": "function"
    },
    {
      "inputs": [
        {
          "internalType": "address",
          "name": "operator",
          "type": "address"
        },
        {
          "internalType": "bool",
          "name": "approved",
          "type": "bool"
        }
      ],
      "name": "setApprovalForAll",
      "outputs": [],
      "stateMutability": "nonpayable",
      "type": "function"
    },
    {
      "inputs": [
        {
          "internalType": "bytes4",
          "name": "interfaceId",
          "type": "bytes4"
        }
      ],
      "name": "supportsInterface",
      "outputs": [
        {
          "internalType": "bool",
          "name": "",
          "type": "bool"
        }
      ],
      "stateMutability": "view",
      "type": "function"
    },
    {
      "inputs": [],
      "name": "symbol",
      "outputs": [
        {
          "internalType": "string",
          "name": "",
          "type": "string"
        }
      ],
      "stateMutability": "view",
      "type": "function"
    },
    {
      "inputs": [
        {
          "internalType": "uint256",
          "name": "tokenId",
          "type": "uint256"
        }
      ],
      "name": "tokenURI",
      "outputs": [
        {
          "internalType": "string",
          "name": "",
          "type": "string"
        }
      ],
      "stateMutability": "view",
      "type": "function"
    },
    {
      "inputs": [
        {
          "internalType": "address",
          "name": "from",
          "type": "address"
        },
        {
          "internalType": "address",
          "name": "to",
          "type": "address"
        },
        {
          "internalType": "uint256",
          "name": "tokenId",
          "type": "uint256"
        }
      ],
      "name": "transferFrom",
      "outputs": [],
      "stateMutability": "nonpayable",
      "type": "function"
    }
  ],
  "bytecode": "0x60806040526040518061018001604052806040518060800160405280604a815260200162003ad3604a913981526020016040518060800160405280604a815260200162003bb2604a913981526020016040518060800160405280604a815260200162003b68604a913981526020016040518060800160405280604a8152602001620039f5604a913981526020016040518060800160405280604a815260200162003a3f604a913981526020016040518060800160405280604a815260200162003a89604a913981526020016040518060800160405280604a815260200162003961604a913981526020016040518060800160405280604a8152602001620039ab604a913981526020016040518060800160405280604a815260200162003bfc604a913981526020016040518060800160405280604b815260200162003c46604b913981526020016040518060800160405280604b815260200162003916604b913981526020016040518060800160405280604b815260200162003b1d604b9139815250600890600c6200019492919062000387565b50348015620001a257600080fd5b506040518060400160405280600a81526020017f45504943414e494d414c000000000000000000000000000000000000000000008152506040518060400160405280600481526020017f4550414d000000000000000000000000000000000000000000000000000000008152508160009081620002209190620006fa565b508060019081620002329190620006fa565b505050620002806040518060400160405280601e81526020017f54686973206973206d79204e465420636f6e74726163742e20576f61682100008152506200028660201b62000c4a1760201c565b620008c3565b62000326816040516024016200029d919062000870565b6040516020818303038152906040527f41304fac000000000000000000000000000000000000000000000000000000007bffffffffffffffffffffffffffffffffffffffffffffffffffffffff19166020820180517bffffffffffffffffffffffffffffffffffffffffffffffffffffffff83818316178352505050506200032960201b60201c565b50565b6200034f816200034a6200035260201b62000ce3176200037360201b60201c565b60201c565b50565b60006a636f6e736f6c652e6c6f679050600080835160208501845afa505050565b620003e760201b62001ddb17819050919050565b828054828255906000526020600020908101928215620003d4579160200282015b82811115620003d3578251829081620003c29190620006fa565b5091602001919060010190620003a8565b5b509050620003e39190620003f3565b5090565b620003f162000894565b565b5b808211156200041757600081816200040d91906200041b565b50600101620003f4565b5090565b5080546200042990620004e9565b6000825580601f106200043d57506200045e565b601f0160209004906000526020600020908101906200045d919062000461565b5b50565b5b808211156200047c57600081600090555060010162000462565b5090565b600081519050919050565b7f4e487b7100000000000000000000000000000000000000000000000000000000600052604160045260246000fd5b7f4e487b7100000000000000000000000000000000000000000000000000000000600052602260045260246000fd5b600060028204905060018216806200050257607f821691505b602082108103620005185762000517620004ba565b5b50919050565b60008190508160005260206000209050919050565b60006020601f8301049050919050565b600082821b905092915050565b600060088302620005827fffffffffffffffffffffffffffffffffffffffffffffffffffffffffffffffff8262000543565b6200058e868362000543565b95508019841693508086168417925050509392505050565b6000819050919050565b6000819050919050565b6000620005db620005d5620005cf84620005a6565b620005b0565b620005a6565b9050919050565b6000819050919050565b620005f783620005ba565b6200060f6200060682620005e2565b84845462000550565b825550505050565b600090565b6200062662000617565b62000633818484620005ec565b505050565b5b818110156200065b576200064f6000826200061c565b60018101905062000639565b5050565b601f821115620006aa5762000674816200051e565b6200067f8462000533565b810160208510156200068f578190505b620006a76200069e8562000533565b83018262000638565b50505b505050565b600082821c905092915050565b6000620006cf60001984600802620006af565b1980831691505092915050565b6000620006ea8383620006bc565b9150826002028217905092915050565b620007058262000480565b67ffffffffffffffff8111156200072157620007206200048b565b5b6200072d8254620004e9565b6200073a8282856200065f565b600060209050601f8311600181146200077257600084156200075d578287015190505b620007698582620006dc565b865550620007d9565b601f19841662000782866200051e565b60005b82811015620007ac5784890151825560018201915060208501945060208101905062000785565b86831015620007cc5784890151620007c8601f891682620006bc565b8355505b6001600288020188555050505b505050505050565b600082825260208201905092915050565b60005b8381101562000812578082015181840152602081019050620007f5565b60008484015250505050565b6000601f19601f8301169050919050565b60006200083c8262000480565b620008488185620007e1565b93506200085a818560208601620007f2565b62000865816200081e565b840191505092915050565b600060208201905081810360008301526200088c81846200082f565b905092915050565b7f4e487b7100000000000000000000000000000000000000000000000000000000600052605160045260246000fd5b61304380620008d36000396000f3fe608060405234801561001057600080fd5b50600436106101005760003560e01c806370a0823111610097578063c87b56dd11610066578063c87b56dd146102ab578063de9d132f146102db578063e985e9c5146102e5578063f9bcfcd31461031557610100565b806370a082311461022557806395d89b4114610255578063a22cb46514610273578063b88d4fde1461028f57610100565b806323b872dd116100d357806323b872dd1461019f57806342842e0e146101bb57806356189236146101d75780636352211e146101f557610100565b806301ffc9a71461010557806306fdde0314610135578063081812fc14610153578063095ea7b314610183575b600080fd5b61011f600480360381019061011a9190611e51565b610346565b60405161012c9190611e99565b60405180910390f35b61013d6103a7565b60405161014a9190611f44565b60405180910390f35b61016d60048036038101906101689190611f9c565b610439565b60405161017a919061200a565b60405180910390f35b61019d60048036038101906101989190612051565b61047f565b005b6101b960048036038101906101b49190612091565b610596565b005b6101d560048036038101906101d09190612091565b6105f6565b005b6101df610616565b6040516101ec91906120f3565b60405180910390f35b61020f600480360381019061020a9190611f9c565b61062c565b60405161021c919061200a565b60405180910390f35b61023f600480360381019061023a919061210e565b6106b2565b60405161024c91906120f3565b60405180910390f35b61025d610769565b60405161026a9190611f44565b60405180910390f35b61028d60048036038101906102889190612167565b6107fb565b005b6102a960048036038101906102a491906122dc565b610811565b005b6102c560048036038101906102c09190611f9c565b610873565b6040516102d29190611f44565b60405180910390f35b6102e3610985565b005b6102ff60048036038101906102fa919061235f565b610ab7565b60405161030c9190611e99565b60405180910390f35b61032f600480360381019061032a9190611f9c565b610b4b565b60405161033d92919061239f565b60405180910390f35b6000634906490660e01b7bffffffffffffffffffffffffffffffffffffffffffffffffffffffff1916827bffffffffffffffffffffffffffffffffffffffffffffffffffffffff191614806103a0575061039f82610d04565b5b9050919050565b6060600080546103b6906123fe565b80601f01602080910402602001604051908101604052809291908181526020018280546103e2906123fe565b801561042f5780601f106104045761010080835404028352916020019161042f565b820191906000526020600020905b81548152906001019060200180831161041257829003601f168201915b5050505050905090565b600061044482610de6565b6004600083815260200190815260200160002060009054906101000a900473ffffffffffffffffffffffffffffffffffffffff169050919050565b600061048a8261062c565b90508073ffffffffffffffffffffffffffffffffffffffff168373ffffffffffffffffffffffffffffffffffffffff16036104fa576040517f08c379a00000000000000000000000000000000000000000000000000000000081526004016104f1906124a1565b60405180910390fd5b8073ffffffffffffffffffffffffffffffffffffffff16610519610e31565b73ffffffffffffffffffffffffffffffffffffffff161480610548575061054781610542610e31565b610ab7565b5b610587576040517f08c379a000000000000000000000000000000000000000000000000000000000815260040161057e90612533565b60405180910390fd5b6105918383610e39565b505050565b6105a76105a1610e31565b82610ef2565b6105e6576040517f08c379a00000000000000000000000000000000000000000000000000000000081526004016105dd906125c5565b60405180910390fd5b6105f1838383610f87565b505050565b61061183838360405180602001604052806000815250610811565b505050565b6000806106236007611280565b90508091505090565b6000806106388361128e565b9050600073ffffffffffffffffffffffffffffffffffffffff168173ffffffffffffffffffffffffffffffffffffffff16036106a9576040517f08c379a00000000000000000000000000000000000000000000000000000000081526004016106a090612631565b60405180910390fd5b80915050919050565b60008073ffffffffffffffffffffffffffffffffffffffff168273ffffffffffffffffffffffffffffffffffffffff1603610722576040517f08c379a0000000000000000000000000000000000000000000000000000000008152600401610719906126c3565b60405180910390fd5b600360008373ffffffffffffffffffffffffffffffffffffffff1673ffffffffffffffffffffffffffffffffffffffff168152602001908152602001600020549050919050565b606060018054610778906123fe565b80601f01602080910402602001604051908101604052809291908181526020018280546107a4906123fe565b80156107f15780601f106107c6576101008083540402835291602001916107f1565b820191906000526020600020905b8154815290600101906020018083116107d457829003601f168201915b5050505050905090565b61080d610806610e31565b83836112cb565b5050565b61082261081c610e31565b83610ef2565b610861576040517f08c379a0000000000000000000000000000000000000000000000000000000008152600401610858906125c5565b60405180910390fd5b61086d84848484611437565b50505050565b606061087e82610de6565b600060066000848152602001908152602001600020805461089e906123fe565b80601f01602080910402602001604051908101604052809291908181526020018280546108ca906123fe565b80156109175780601f106108ec57610100808354040283529160200191610917565b820191906000526020600020905b8154815290600101906020018083116108fa57829003601f168201915b505050505090506000610928611493565b9050600081510361093d578192505050610980565b60008251111561097257808260405160200161095a92919061271f565b60405160208183030381529060405292505050610980565b61097b846114aa565b925050505b919050565b60006109916007611280565b905060328111610ab457606060006109a883610b4b565b80925081935050506109ee6040518060400160405280601581526020017f0a2d2d2d2d2d2d2d2d2d2d2d2d2d2d2d2d2d2d2d2d0000000000000000000000815250610c4a565b6109f782610c4a565b610a356040518060400160405280601581526020017f2d2d2d2d2d2d2d2d2d2d2d2d2d2d2d2d2d2d2d2d0a0000000000000000000000815250610c4a565b610a3f3384611512565b610a498383611530565b610a5360076115d4565b610a76604051806060016040528060258152602001612fe96025913984336115ea565b7f9e9e101732de0887d722bd72c01c5439edc857c9c2c763953d67e66de12441d3338483604051610aa993929190612743565b60405180910390a150505b50565b6000600560008473ffffffffffffffffffffffffffffffffffffffff1673ffffffffffffffffffffffffffffffffffffffff16815260200190815260200160002060008373ffffffffffffffffffffffffffffffffffffffff1673ffffffffffffffffffffffffffffffffffffffff16815260200190815260200160002060009054906101000a900460ff16905092915050565b6060600080610b80610b5c85611689565b604051602001610b6c91906127c6565b604051602081830303815290604052611757565b905060088054905081610b939190612817565b905060088181548110610ba957610ba8612848565b5b9060005260206000200181818054610bc0906123fe565b80601f0160208091040260200160405190810160405280929190818152602001828054610bec906123fe565b8015610c395780601f10610c0e57610100808354040283529160200191610c39565b820191906000526020600020905b815481529060010190602001808311610c1c57829003601f168201915b505050505091509250925050915091565b610ce081604051602401610c5e9190611f44565b6040516020818303038152906040527f41304fac000000000000000000000000000000000000000000000000000000007bffffffffffffffffffffffffffffffffffffffffffffffffffffffff19166020820180517bffffffffffffffffffffffffffffffffffffffffffffffffffffffff838183161783525050505061178a565b50565b60006a636f6e736f6c652e6c6f679050600080835160208501845afa505050565b60007f80ac58cd000000000000000000000000000000000000000000000000000000007bffffffffffffffffffffffffffffffffffffffffffffffffffffffff1916827bffffffffffffffffffffffffffffffffffffffffffffffffffffffff19161480610dcf57507f5b5e139f000000000000000000000000000000000000000000000000000000007bffffffffffffffffffffffffffffffffffffffffffffffffffffffff1916827bffffffffffffffffffffffffffffffffffffffffffffffffffffffff1916145b80610ddf5750610dde826117a4565b5b9050919050565b610def8161180e565b610e2e576040517f08c379a0000000000000000000000000000000000000000000000000000000008152600401610e2590612631565b60405180910390fd5b50565b600033905090565b816004600083815260200190815260200160002060006101000a81548173ffffffffffffffffffffffffffffffffffffffff021916908373ffffffffffffffffffffffffffffffffffffffff160217905550808273ffffffffffffffffffffffffffffffffffffffff16610eac8361062c565b73ffffffffffffffffffffffffffffffffffffffff167f8c5be1e5ebec7d5bd14f71427d1e84f3dd0314c0f7b2291e5b200ac8c7c3b92560405160405180910390a45050565b600080610efe8361062c565b90508073ffffffffffffffffffffffffffffffffffffffff168473ffffffffffffffffffffffffffffffffffffffff161480610f405750610f3f8185610ab7565b5b80610f7e57508373ffffffffffffffffffffffffffffffffffffffff16610f6684610439565b73ffffffffffffffffffffffffffffffffffffffff16145b91505092915050565b8273ffffffffffffffffffffffffffffffffffffffff16610fa78261062c565b73ffffffffffffffffffffffffffffffffffffffff1614610ffd576040517f08c379a0000000000000000000000000000000000000000000000000000000008152600401610ff4906128e9565b60405180910390fd5b600073ffffffffffffffffffffffffffffffffffffffff168273ffffffffffffffffffffffffffffffffffffffff160361106c576040517f08c379a00000000000000000000000000000000000000000000000000000000081526004016110639061297b565b60405180910390fd5b611079838383600161184f565b8273ffffffffffffffffffffffffffffffffffffffff166110998261062c565b73ffffffffffffffffffffffffffffffffffffffff16146110ef576040517f08c379a00000000000000000000000000000000000000000000000000000000081526004016110e6906128e9565b60405180910390fd5b6004600082815260200190815260200160002060006101000a81549073ffffffffffffffffffffffffffffffffffffffff02191690556001600360008573ffffffffffffffffffffffffffffffffffffffff1673ffffffffffffffffffffffffffffffffffffffff168152602001908152602001600020600082825403925050819055506001600360008473ffffffffffffffffffffffffffffffffffffffff1673ffffffffffffffffffffffffffffffffffffffff16815260200190815260200160002060008282540192505081905550816002600083815260200190815260200160002060006101000a81548173ffffffffffffffffffffffffffffffffffffffff021916908373ffffffffffffffffffffffffffffffffffffffff160217905550808273ffffffffffffffffffffffffffffffffffffffff168473ffffffffffffffffffffffffffffffffffffffff167fddf252ad1be2c89b69c2b068fc378daa952ba7f163c4a11628f55a4df523b3ef60405160405180910390a461127b8383836001611855565b505050565b600081600001549050919050565b60006002600083815260200190815260200160002060009054906101000a900473ffffffffffffffffffffffffffffffffffffffff169050919050565b8173ffffffffffffffffffffffffffffffffffffffff168373ffffffffffffffffffffffffffffffffffffffff1603611339576040517f08c379a0000000000000000000000000000000000000000000000000000000008152600401611330906129e7565b60405180910390fd5b80600560008573ffffffffffffffffffffffffffffffffffffffff1673ffffffffffffffffffffffffffffffffffffffff16815260200190815260200160002060008473ffffffffffffffffffffffffffffffffffffffff1673ffffffffffffffffffffffffffffffffffffffff16815260200190815260200160002060006101000a81548160ff0219169083151502179055508173ffffffffffffffffffffffffffffffffffffffff168373ffffffffffffffffffffffffffffffffffffffff167f17307eab39ab6107e8899845ad3d59bd9653f200f220920489ca2b5937696c318360405161142a9190611e99565b60405180910390a3505050565b611442848484610f87565b61144e8484848461185b565b61148d576040517f08c379a000000000000000000000000000000000000000000000000000000000815260040161148490612a79565b60405180910390fd5b50505050565b606060405180602001604052806000815250905090565b60606114b582610de6565b60006114bf611493565b905060008151116114df576040518060200160405280600081525061150a565b806114e984611689565b6040516020016114fa92919061271f565b6040516020818303038152906040525b915050919050565b61152c8282604051806020016040528060008152506119e2565b5050565b6115398261180e565b611578576040517f08c379a000000000000000000000000000000000000000000000000000000000815260040161156f90612b0b565b60405180910390fd5b806006600084815260200190815260200160002090816115989190612cd7565b507ff8e1a15aba9398e019f0b49df1a4fde98ee17ae345cb5f6b5e2c27f5033e8ce7826040516115c891906120f3565b60405180910390a15050565b6001816000016000828254019250508190555050565b61168483838360405160240161160293929190612da9565b6040516020818303038152906040527f1c7ec448000000000000000000000000000000000000000000000000000000007bffffffffffffffffffffffffffffffffffffffffffffffffffffffff19166020820180517bffffffffffffffffffffffffffffffffffffffffffffffffffffffff838183161783525050505061178a565b505050565b60606000600161169884611a3d565b01905060008167ffffffffffffffff8111156116b7576116b66121b1565b5b6040519080825280601f01601f1916602001820160405280156116e95781602001600182028036833780820191505090505b509050600082602001820190505b60011561174c578080600190039150507f3031323334353637383961626364656600000000000000000000000000000000600a86061a8153600a85816117405761173f6127e8565b5b049450600085036116f7575b819350505050919050565b60008160405160200161176a9190612de7565b6040516020818303038152906040528051906020012060001c9050919050565b6117a181611799610ce3611b90565b63ffffffff16565b50565b60007f01ffc9a7000000000000000000000000000000000000000000000000000000007bffffffffffffffffffffffffffffffffffffffffffffffffffffffff1916827bffffffffffffffffffffffffffffffffffffffffffffffffffffffff1916149050919050565b60008073ffffffffffffffffffffffffffffffffffffffff166118308361128e565b73ffffffffffffffffffffffffffffffffffffffff1614159050919050565b50505050565b50505050565b600061187c8473ffffffffffffffffffffffffffffffffffffffff16611b9b565b156119d5578373ffffffffffffffffffffffffffffffffffffffff1663150b7a026118a5610e31565b8786866040518563ffffffff1660e01b81526004016118c79493929190612e53565b6020604051808303816000875af192505050801561190357506040513d601f19601f820116820180604052508101906119009190612eb4565b60015b611985573d8060008114611933576040519150601f19603f3d011682016040523d82523d6000602084013e611938565b606091505b50600081510361197d576040517f08c379a000000000000000000000000000000000000000000000000000000000815260040161197490612a79565b60405180910390fd5b805181602001fd5b63150b7a0260e01b7bffffffffffffffffffffffffffffffffffffffffffffffffffffffff1916817bffffffffffffffffffffffffffffffffffffffffffffffffffffffff1916149150506119da565b600190505b949350505050565b6119ec8383611bbe565b6119f9600084848461185b565b611a38576040517f08c379a0000000000000000000000000000000000000000000000000000000008152600401611a2f90612a79565b60405180910390fd5b505050565b600080600090507a184f03e93ff9f4daa797ed6e38ed64bf6a1f0100000000000000008310611a9b577a184f03e93ff9f4daa797ed6e38ed64bf6a1f0100000000000000008381611a9157611a906127e8565b5b0492506040810190505b6d04ee2d6d415b85acef81000000008310611ad8576d04ee2d6d415b85acef81000000008381611ace57611acd6127e8565b5b0492506020810190505b662386f26fc100008310611b0757662386f26fc100008381611afd57611afc6127e8565b5b0492506010810190505b6305f5e1008310611b30576305f5e1008381611b2657611b256127e8565b5b0492506008810190505b6127108310611b55576127108381611b4b57611b4a6127e8565b5b0492506004810190505b60648310611b785760648381611b6e57611b6d6127e8565b5b0492506002810190505b600a8310611b87576001810190505b80915050919050565b611ddb819050919050565b6000808273ffffffffffffffffffffffffffffffffffffffff163b119050919050565b600073ffffffffffffffffffffffffffffffffffffffff168273ffffffffffffffffffffffffffffffffffffffff1603611c2d576040517f08c379a0000000000000000000000000000000000000000000000000000000008152600401611c2490612f2d565b60405180910390fd5b611c368161180e565b15611c76576040517f08c379a0000000000000000000000000000000000000000000000000000000008152600401611c6d90612f99565b60405180910390fd5b611c8460008383600161184f565b611c8d8161180e565b15611ccd576040517f08c379a0000000000000000000000000000000000000000000000000000000008152600401611cc490612f99565b60405180910390fd5b6001600360008473ffffffffffffffffffffffffffffffffffffffff1673ffffffffffffffffffffffffffffffffffffffff16815260200190815260200160002060008282540192505081905550816002600083815260200190815260200160002060006101000a81548173ffffffffffffffffffffffffffffffffffffffff021916908373ffffffffffffffffffffffffffffffffffffffff160217905550808273ffffffffffffffffffffffffffffffffffffffff16600073ffffffffffffffffffffffffffffffffffffffff167fddf252ad1be2c89b69c2b068fc378daa952ba7f163c4a11628f55a4df523b3ef60405160405180910390a4611dd7600083836001611855565b5050565b611de3612fb9565b565b6000604051905090565b600080fd5b600080fd5b60007fffffffff0000000000000000000000000000000000000000000000000000000082169050919050565b611e2e81611df9565b8114611e3957600080fd5b50565b600081359050611e4b81611e25565b92915050565b600060208284031215611e6757611e66611def565b5b6000611e7584828501611e3c565b91505092915050565b60008115159050919050565b611e9381611e7e565b82525050565b6000602082019050611eae6000830184611e8a565b92915050565b600081519050919050565b600082825260208201905092915050565b60005b83811015611eee578082015181840152602081019050611ed3565b60008484015250505050565b6000601f19601f8301169050919050565b6000611f1682611eb4565b611f208185611ebf565b9350611f30818560208601611ed0565b611f3981611efa565b840191505092915050565b60006020820190508181036000830152611f5e8184611f0b565b905092915050565b6000819050919050565b611f7981611f66565b8114611f8457600080fd5b50565b600081359050611f9681611f70565b92915050565b600060208284031215611fb257611fb1611def565b5b6000611fc084828501611f87565b91505092915050565b600073ffffffffffffffffffffffffffffffffffffffff82169050919050565b6000611ff482611fc9565b9050919050565b61200481611fe9565b82525050565b600060208201905061201f6000830184611ffb565b92915050565b61202e81611fe9565b811461203957600080fd5b50565b60008135905061204b81612025565b92915050565b6000806040838503121561206857612067611def565b5b60006120768582860161203c565b925050602061208785828601611f87565b9150509250929050565b6000806000606084860312156120aa576120a9611def565b5b60006120b88682870161203c565b93505060206120c98682870161203c565b92505060406120da86828701611f87565b9150509250925092565b6120ed81611f66565b82525050565b600060208201905061210860008301846120e4565b92915050565b60006020828403121561212457612123611def565b5b60006121328482850161203c565b91505092915050565b61214481611e7e565b811461214f57600080fd5b50565b6000813590506121618161213b565b92915050565b6000806040838503121561217e5761217d611def565b5b600061218c8582860161203c565b925050602061219d85828601612152565b9150509250929050565b600080fd5b600080fd5b7f4e487b7100000000000000000000000000000000000000000000000000000000600052604160045260246000fd5b6121e982611efa565b810181811067ffffffffffffffff82111715612208576122076121b1565b5b80604052505050565b600061221b611de5565b905061222782826121e0565b919050565b600067ffffffffffffffff821115612247576122466121b1565b5b61225082611efa565b9050602081019050919050565b82818337600083830152505050565b600061227f61227a8461222c565b612211565b90508281526020810184848401111561229b5761229a6121ac565b5b6122a684828561225d565b509392505050565b600082601f8301126122c3576122c26121a7565b5b81356122d384826020860161226c565b91505092915050565b600080600080608085870312156122f6576122f5611def565b5b60006123048782880161203c565b94505060206123158782880161203c565b935050604061232687828801611f87565b925050606085013567ffffffffffffffff81111561234757612346611df4565b5b612353878288016122ae565b91505092959194509250565b6000806040838503121561237657612375611def565b5b60006123848582860161203c565b92505060206123958582860161203c565b9150509250929050565b600060408201905081810360008301526123b98185611f0b565b90506123c860208301846120e4565b9392505050565b7f4e487b7100000000000000000000000000000000000000000000000000000000600052602260045260246000fd5b6000600282049050600182168061241657607f821691505b602082108103612429576124286123cf565b5b50919050565b7f4552433732313a20617070726f76616c20746f2063757272656e74206f776e6560008201527f7200000000000000000000000000000000000000000000000000000000000000602082015250565b600061248b602183611ebf565b91506124968261242f565b604082019050919050565b600060208201905081810360008301526124ba8161247e565b9050919050565b7f4552433732313a20617070726f76652063616c6c6572206973206e6f7420746f60008201527f6b656e206f776e6572206f7220617070726f76656420666f7220616c6c000000602082015250565b600061251d603d83611ebf565b9150612528826124c1565b604082019050919050565b6000602082019050818103600083015261254c81612510565b9050919050565b7f4552433732313a2063616c6c6572206973206e6f7420746f6b656e206f776e6560008201527f72206f7220617070726f76656400000000000000000000000000000000000000602082015250565b60006125af602d83611ebf565b91506125ba82612553565b604082019050919050565b600060208201905081810360008301526125de816125a2565b9050919050565b7f4552433732313a20696e76616c696420746f6b656e2049440000000000000000600082015250565b600061261b601883611ebf565b9150612626826125e5565b602082019050919050565b6000602082019050818103600083015261264a8161260e565b9050919050565b7f4552433732313a2061646472657373207a65726f206973206e6f74206120766160008201527f6c6964206f776e65720000000000000000000000000000000000000000000000602082015250565b60006126ad602983611ebf565b91506126b882612651565b604082019050919050565b600060208201905081810360008301526126dc816126a0565b9050919050565b600081905092915050565b60006126f982611eb4565b61270381856126e3565b9350612713818560208601611ed0565b80840191505092915050565b600061272b82856126ee565b915061273782846126ee565b91508190509392505050565b60006060820190506127586000830186611ffb565b61276560208301856120e4565b61277260408301846120e4565b949350505050565b7f495046535f4c494e4b0000000000000000000000000000000000000000000000600082015250565b60006127b06009836126e3565b91506127bb8261277a565b600982019050919050565b60006127d1826127a3565b91506127dd82846126ee565b915081905092915050565b7f4e487b7100000000000000000000000000000000000000000000000000000000600052601260045260246000fd5b600061282282611f66565b915061282d83611f66565b92508261283d5761283c6127e8565b5b828206905092915050565b7f4e487b7100000000000000000000000000000000000000000000000000000000600052603260045260246000fd5b7f4552433732313a207472616e736665722066726f6d20696e636f72726563742060008201527f6f776e6572000000000000000000000000000000000000000000000000000000602082015250565b60006128d3602583611ebf565b91506128de82612877565b604082019050919050565b60006020820190508181036000830152612902816128c6565b9050919050565b7f4552433732313a207472616e7366657220746f20746865207a65726f2061646460008201527f7265737300000000000000000000000000000000000000000000000000000000602082015250565b6000612965602483611ebf565b915061297082612909565b604082019050919050565b6000602082019050818103600083015261299481612958565b9050919050565b7f4552433732313a20617070726f766520746f2063616c6c657200000000000000600082015250565b60006129d1601983611ebf565b91506129dc8261299b565b602082019050919050565b60006020820190508181036000830152612a00816129c4565b9050919050565b7f4552433732313a207472616e7366657220746f206e6f6e20455243373231526560008201527f63656976657220696d706c656d656e7465720000000000000000000000000000602082015250565b6000612a63603283611ebf565b9150612a6e82612a07565b604082019050919050565b60006020820190508181036000830152612a9281612a56565b9050919050565b7f45524337323155524953746f726167653a2055524920736574206f66206e6f6e60008201527f6578697374656e7420746f6b656e000000000000000000000000000000000000602082015250565b6000612af5602e83611ebf565b9150612b0082612a99565b604082019050919050565b60006020820190508181036000830152612b2481612ae8565b9050919050565b60008190508160005260206000209050919050565b60006020601f8301049050919050565b600082821b905092915050565b600060088302612b8d7fffffffffffffffffffffffffffffffffffffffffffffffffffffffffffffffff82612b50565b612b978683612b50565b95508019841693508086168417925050509392505050565b6000819050919050565b6000612bd4612bcf612bca84611f66565b612baf565b611f66565b9050919050565b6000819050919050565b612bee83612bb9565b612c02612bfa82612bdb565b848454612b5d565b825550505050565b600090565b612c17612c0a565b612c22818484612be5565b505050565b5b81811015612c4657612c3b600082612c0f565b600181019050612c28565b5050565b601f821115612c8b57612c5c81612b2b565b612c6584612b40565b81016020851015612c74578190505b612c88612c8085612b40565b830182612c27565b50505b505050565b600082821c905092915050565b6000612cae60001984600802612c90565b1980831691505092915050565b6000612cc78383612c9d565b9150826002028217905092915050565b612ce082611eb4565b67ffffffffffffffff811115612cf957612cf86121b1565b5b612d0382546123fe565b612d0e828285612c4a565b600060209050601f831160018114612d415760008415612d2f578287015190505b612d398582612cbb565b865550612da1565b601f198416612d4f86612b2b565b60005b82811015612d7757848901518255600182019150602085019450602081019050612d52565b86831015612d945784890151612d90601f891682612c9d565b8355505b6001600288020188555050505b505050505050565b60006060820190508181036000830152612dc38186611f0b565b9050612dd260208301856120e4565b612ddf6040830184611ffb565b949350505050565b6000612df382846126ee565b915081905092915050565b600081519050919050565b600082825260208201905092915050565b6000612e2582612dfe565b612e2f8185612e09565b9350612e3f818560208601611ed0565b612e4881611efa565b840191505092915050565b6000608082019050612e686000830187611ffb565b612e756020830186611ffb565b612e8260408301856120e4565b8181036060830152612e948184612e1a565b905095945050505050565b600081519050612eae81611e25565b92915050565b600060208284031215612eca57612ec9611def565b5b6000612ed884828501612e9f565b91505092915050565b7f4552433732313a206d696e7420746f20746865207a65726f2061646472657373600082015250565b6000612f17602083611ebf565b9150612f2282612ee1565b602082019050919050565b60006020820190508181036000830152612f4681612f0a565b9050919050565b7f4552433732313a20746f6b656e20616c7265616479206d696e74656400000000600082015250565b6000612f83601c83611ebf565b9150612f8e82612f4d565b602082019050919050565b60006020820190508181036000830152612fb281612f76565b9050919050565b7f4e487b7100000000000000000000000000000000000000000000000000000000600052605160045260246000fdfe416e204e465420772f20494420257320686173206265656e206d696e74656420746f202573a2646970667358221220d8cdd3d3aad4115fbb0bb27f56a585f4cff59a53ad0daacaddb49f5873a114c364736f6c6343000811003368747470733a2f2f697066732e696f2f697066732f516d644a6a755a517556626e38746873616579465a61743244417a3541354d5568654b58776146387737726736752f31312e6a736f6e68747470733a2f2f697066732e696f2f697066732f516d644a6a755a517556626e38746873616579465a61743244417a3541354d5568654b58776146387737726736752f372e6a736f6e68747470733a2f2f697066732e696f2f697066732f516d644a6a755a517556626e38746873616579465a61743244417a3541354d5568654b58776146387737726736752f382e6a736f6e68747470733a2f2f697066732e696f2f697066732f516d644a6a755a517556626e38746873616579465a61743244417a3541354d5568654b58776146387737726736752f342e6a736f6e68747470733a2f2f697066732e696f2f697066732f516d644a6a755a517556626e38746873616579465a61743244417a3541354d5568654b58776146387737726736752f352e6a736f6e68747470733a2f2f697066732e696f2f697066732f516d644a6a755a517556626e38746873616579465a61743244417a3541354d5568654b58776146387737726736752f362e6a736f6e68747470733a2f2f697066732e696f2f697066732f516d644a6a755a517556626e38746873616579465a61743244417a3541354d5568654b58776146387737726736752f312e6a736f6e68747470733a2f2f697066732e696f2f697066732f516d644a6a755a517556626e38746873616579465a61743244417a3541354d5568654b58776146387737726736752f31322e6a736f6e68747470733a2f2f697066732e696f2f697066732f516d644a6a755a517556626e38746873616579465a61743244417a3541354d5568654b58776146387737726736752f332e6a736f6e68747470733a2f2f697066732e696f2f697066732f516d644a6a755a517556626e38746873616579465a61743244417a3541354d5568654b58776146387737726736752f322e6a736f6e68747470733a2f2f697066732e696f2f697066732f516d644a6a755a517556626e38746873616579465a61743244417a3541354d5568654b58776146387737726736752f392e6a736f6e68747470733a2f2f697066732e696f2f697066732f516d644a6a755a517556626e38746873616579465a61743244417a3541354d5568654b58776146387737726736752f31302e6a736f6e",
  "linkReferences": {},
  "deployedLinkReferences": {}
}